:1000000014C019C018C017C016C015C014C013C042
:1000100012C011C010C00FC00EC00DC00CC00BC06C
:100020000AC009C008C007C006C011241FBECFED1A
:10003000CDBF02D057C0E4CF8FEF87BB88BB93EF13
:1000400091BB82BB40E050E020E030E02DC06FEB80
:1000500084ED91E0615080409040E1F700C00000E5
:1000600087E090E0022E02C0880F991F0A94E2F701
:10007000809588BB263031054CF44115510531F48B
:100080002F5F3F4F2530310579F409C0332364F0E9
:100090004130510549F42150310921F005C041E0BA
:1000A00050E002C040E050E0829BD1CF16C02FE369
:1000B0006DE083E0215060408040E1F700C0000027
:1000C0008AEA88BB9FE32DE063E0915020406040C6
:1000D000E1F700C0000085E588BB839BE8CF8FEF88
:0800E00088BBB0CFF894FFCFFC
:00000001FF
